{
  "_format": "hh-sol-artifact-1",
  "contractName": "ProductFactory",
  "sourceName": "contracts/ProductFactory.sol",
  "abi": [
    {
      "anonymous": false,
      "inputs": [
        {
          "indexed": false,
          "internalType": "uint256",
          "name": "id",
          "type": "uint256"
        },
        {
          "indexed": false,
          "internalType": "uint256",
          "name": "ProductId",
          "type": "uint256"
        },
        {
          "indexed": false,
          "internalType": "string",
          "name": "ProductName",
          "type": "string"
        }
      ],
      "name": "NewProduct",
      "type": "event"
    },
    {
      "inputs": [
        {
          "internalType": "uint256",
          "name": "_ProductId",
          "type": "uint256"
        },
        {
          "internalType": "string",
          "name": "_ProductName",
          "type": "string"
        },
        {
          "internalType": "string",
          "name": "_PartNumber",
          "type": "string"
        },
        {
          "internalType": "string",
          "name": "_ProductDescription",
          "type": "string"
        }
      ],
      "name": "createProduct",
      "outputs": [],
      "stateMutability": "nonpayable",
      "type": "function"
    },
    {
      "inputs": [
        {
          "internalType": "address",
          "name": "_owner",
          "type": "address"
        }
      ],
      "name": "getProductByOwner",
      "outputs": [
        {
          "internalType": "uint256[]",
          "name": "",
          "type": "uint256[]"
        }
      ],
      "stateMutability": "view",
      "type": "function"
    },
    {
      "inputs": [],
      "name": "getProductByOwnerCount",
      "outputs": [
        {
          "internalType": "uint256",
          "name": "",
          "type": "uint256"
        }
      ],
      "stateMutability": "view",
      "type": "function"
    },
    {
      "inputs": [
        {
          "internalType": "uint256",
          "name": "",
          "type": "uint256"
        }
      ],
      "name": "productToOwner",
      "outputs": [
        {
          "internalType": "address",
          "name": "",
          "type": "address"
        }
      ],
      "stateMutability": "view",
      "type": "function"
    },
    {
      "inputs": [
        {
          "internalType": "uint256",
          "name": "",
          "type": "uint256"
        }
      ],
      "name": "products",
      "outputs": [
        {
          "internalType": "uint256",
          "name": "ProductId",
          "type": "uint256"
        },
        {
          "internalType": "string",
          "name": "ProductName",
          "type": "string"
        },
        {
          "internalType": "string",
          "name": "PartNumber",
          "type": "string"
        },
        {
          "internalType": "string",
          "name": "ProductDescription",
          "type": "string"
        }
      ],
      "stateMutability": "view",
      "type": "function"
    }
  ],
  "bytecode": "0x608060405234801561001057600080fd5b50610e9b806100206000396000f3fe608060405234801561001057600080fd5b50600436106100575760003560e01c806320a8010f1461005c578063420fadc81461007a57806359b83e79146100aa5780637acc0b20146100c6578063d0d0bf01146100f9575b600080fd5b610064610129565b6040516100719190610b3b565b60405180910390f35b610094600480360381019061008f9190610913565b610170565b6040516100a19190610afe565b60405180910390f35b6100c460048036038101906100bf919061093c565b6101a3565b005b6100e060048036038101906100db9190610913565b61045c565b6040516100f09493929190610b56565b60405180910390f35b610113600480360381019061010e91906108ea565b610634565b6040516101209190610b19565b60405180910390f35b6000600260003373ffffffffffffffffffffffffffffffffffffffff1673ffffffffffffffffffffffffffffffffffffffff16815260200190815260200160002054905090565b60016020528060005260406000206000915054906101000a900473ffffffffffffffffffffffffffffffffffffffff1681565b6000604051806080016040528089815260200188888080601f016020809104026020016040519081016040528093929190818152602001838380828437600081840152601f19601f82011690508083019250505050505050815260200186868080601f016020809104026020016040519081016040528093929190818152602001838380828437600081840152601f19601f82011690508083019250505050505050815260200184848080601f016020809104026020016040519081016040528093929190818152602001838380828437600081840152601f19601f8201169050808301925050505050505081525090806001815401808255809150506001900390600052602060002090600402016000909190919091506000820151816000015560208201518160010190805190602001906102e19291906107d3565b5060408201518160020190805190602001906102fe9291906107d3565b50606082015181600301908051906020019061031b9291906107d3565b505050600060016000805490506103329190610c9b565b9050336001600083815260200190815260200160002060006101000a81548173ffffffffffffffffffffffffffffffffffffffff021916908373ffffffffffffffffffffffffffffffffffffffff1602179055506001600260003373ffffffffffffffffffffffffffffffffffffffff1673ffffffffffffffffffffffffffffffffffffffff168152602001908152602001600020546103d29190610c45565b600260003373ffffffffffffffffffffffffffffffffffffffff1673ffffffffffffffffffffffffffffffffffffffff168152602001908152602001600020819055507f2aab96dbbfc8c74d76f44ca415f27583f9a315188d929a9b074b5dca031cd7618189898960405161044a9493929190610bb0565b60405180910390a15050505050505050565b6000818154811061046c57600080fd5b906000526020600020906004020160009150905080600001549080600101805461049590610d4d565b80601f01602080910402602001604051908101604052809291908181526020018280546104c190610d4d565b801561050e5780601f106104e35761010080835404028352916020019161050e565b820191906000526020600020905b8154815290600101906020018083116104f157829003601f168201915b50505050509080600201805461052390610d4d565b80601f016020809104026020016040519081016040528092919081815260200182805461054f90610d4d565b801561059c5780601f106105715761010080835404028352916020019161059c565b820191906000526020600020905b81548152906001019060200180831161057f57829003601f168201915b5050505050908060030180546105b190610d4d565b80601f01602080910402602001604051908101604052809291908181526020018280546105dd90610d4d565b801561062a5780601f106105ff5761010080835404028352916020019161062a565b820191906000526020600020905b81548152906001019060200180831161060d57829003601f168201915b5050505050905084565b60606000600260008473ffffffffffffffffffffffffffffffffffffffff1673ffffffffffffffffffffffffffffffffffffffff1681526020019081526020016000205467ffffffffffffffff8111156106b7577f4e487b7100000000000000000000000000000000000000000000000000000000600052604160045260246000fd5b6040519080825280602002602001820160405280156106e55781602001602082028036833780820191505090505b5090506000805b6000805490508110156107c8578473ffffffffffffffffffffffffffffffffffffffff166001600083815260200190815260200160002060009054906101000a900473ffffffffffffffffffffffffffffffffffffffff1673ffffffffffffffffffffffffffffffffffffffff1614156107b5578083838151811061079a577f4e487b7100000000000000000000000000000000000000000000000000000000600052603260045260246000fd5b60200260200101818152505081806107b190610d7f565b9250505b80806107c090610d7f565b9150506106ec565b508192505050919050565b8280546107df90610d4d565b90600052602060002090601f0160209004810192826108015760008555610848565b82601f1061081a57805160ff1916838001178555610848565b82800160010185558215610848579182015b8281111561084757825182559160200191906001019061082c565b5b5090506108559190610859565b5090565b5b8082111561087257600081600090555060010161085a565b5090565b60008135905061088581610e37565b92915050565b60008083601f84011261089d57600080fd5b8235905067ffffffffffffffff8111156108b657600080fd5b6020830191508360018202830111156108ce57600080fd5b9250929050565b6000813590506108e481610e4e565b92915050565b6000602082840312156108fc57600080fd5b600061090a84828501610876565b91505092915050565b60006020828403121561092557600080fd5b6000610933848285016108d5565b91505092915050565b60008060008060008060006080888a03121561095757600080fd5b60006109658a828b016108d5565b975050602088013567ffffffffffffffff81111561098257600080fd5b61098e8a828b0161088b565b9650965050604088013567ffffffffffffffff8111156109ad57600080fd5b6109b98a828b0161088b565b9450945050606088013567ffffffffffffffff8111156109d857600080fd5b6109e48a828b0161088b565b925092505092959891949750929550565b6000610a018383610ae0565b60208301905092915050565b610a1681610ccf565b82525050565b6000610a2782610c00565b610a318185610c23565b9350610a3c83610bf0565b8060005b83811015610a6d578151610a5488826109f5565b9750610a5f83610c16565b925050600181019050610a40565b5085935050505092915050565b6000610a868385610c34565b9350610a93838584610d0b565b610a9c83610e26565b840190509392505050565b6000610ab282610c0b565b610abc8185610c34565b9350610acc818560208601610d1a565b610ad581610e26565b840191505092915050565b610ae981610d01565b82525050565b610af881610d01565b82525050565b6000602082019050610b136000830184610a0d565b92915050565b60006020820190508181036000830152610b338184610a1c565b905092915050565b6000602082019050610b506000830184610aef565b92915050565b6000608082019050610b6b6000830187610aef565b8181036020830152610b7d8186610aa7565b90508181036040830152610b918185610aa7565b90508181036060830152610ba58184610aa7565b905095945050505050565b6000606082019050610bc56000830187610aef565b610bd26020830186610aef565b8181036040830152610be5818486610a7a565b905095945050505050565b6000819050602082019050919050565b600081519050919050565b600081519050919050565b6000602082019050919050565b600082825260208201905092915050565b600082825260208201905092915050565b6000610c5082610d01565b9150610c5b83610d01565b9250827fffffffffffffffffffffffffffffffffffffffffffffffffffffffffffffffff03821115610c9057610c8f610dc8565b5b828201905092915050565b6000610ca682610d01565b9150610cb183610d01565b925082821015610cc457610cc3610dc8565b5b828203905092915050565b6000610cda82610ce1565b9050919050565b600073ffffffffffffffffffffffffffffffffffffffff82169050919050565b6000819050919050565b82818337600083830152505050565b60005b83811015610d38578082015181840152602081019050610d1d565b83811115610d47576000848401525b50505050565b60006002820490506001821680610d6557607f821691505b60208210811415610d7957610d78610df7565b5b50919050565b6000610d8a82610d01565b91507fffffffffffffffffffffffffffffffffffffffffffffffffffffffffffffffff821415610dbd57610dbc610dc8565b5b600182019050919050565b7f4e487b7100000000000000000000000000000000000000000000000000000000600052601160045260246000fd5b7f4e487b7100000000000000000000000000000000000000000000000000000000600052602260045260246000fd5b6000601f19601f8301169050919050565b610e4081610ccf565b8114610e4b57600080fd5b50565b610e5781610d01565b8114610e6257600080fd5b5056fea26469706673582212208fc62fd8dcc542dbc1e9d68dce27090672fc21afe4d5140d662da53e9c2d80d964736f6c63430008040033",
  "linkReferences": {},
  "deployedLinkReferences": {}
}