{
  "_format": "hh-sol-artifact-1",
  "contractName": "PurchaseOrderHeaderFactory",
  "sourceName": "contracts/PurchaseOrderHeaderFactory.sol",
  "abi": [
    {
      "inputs": [
        {
          "internalType": "uint32",
          "name": "_DocNumber",
          "type": "uint32"
        },
        {
          "internalType": "uint256",
          "name": "_TransactionDate",
          "type": "uint256"
        },
        {
          "internalType": "uint256",
          "name": "_SupplierId",
          "type": "uint256"
        },
        {
          "components": [
            {
              "internalType": "uint32",
              "name": "DocNumber",
              "type": "uint32"
            },
            {
              "internalType": "uint32",
              "name": "LineNo",
              "type": "uint32"
            },
            {
              "internalType": "uint256",
              "name": "ProductId",
              "type": "uint256"
            },
            {
              "internalType": "uint256",
              "name": "Quantity",
              "type": "uint256"
            },
            {
              "internalType": "int256",
              "name": "Amount",
              "type": "int256"
            }
          ],
          "internalType": "struct PurchaseOrderLineFactory.PurchaseOrderLine[]",
          "name": "newLines",
          "type": "tuple[]"
        }
      ],
      "name": "createPurchaseOrderHeader",
      "outputs": [],
      "stateMutability": "nonpayable",
      "type": "function"
    },
    {
      "inputs": [
        {
          "internalType": "address",
          "name": "_owner",
          "type": "address"
        }
      ],
      "name": "getPurchaseOrderHeaderByOwner",
      "outputs": [
        {
          "internalType": "uint256[]",
          "name": "",
          "type": "uint256[]"
        }
      ],
      "stateMutability": "view",
      "type": "function"
    },
    {
      "inputs": [
        {
          "internalType": "address",
          "name": "_owner",
          "type": "address"
        }
      ],
      "name": "getPurchaseOrderLineByOwner",
      "outputs": [
        {
          "internalType": "uint256[]",
          "name": "",
          "type": "uint256[]"
        }
      ],
      "stateMutability": "view",
      "type": "function"
    },
    {
      "inputs": [
        {
          "internalType": "uint256",
          "name": "",
          "type": "uint256"
        }
      ],
      "name": "purchaseOrderHeaderToOwner",
      "outputs": [
        {
          "internalType": "address",
          "name": "",
          "type": "address"
        }
      ],
      "stateMutability": "view",
      "type": "function"
    },
    {
      "inputs": [
        {
          "internalType": "uint256",
          "name": "",
          "type": "uint256"
        }
      ],
      "name": "purchaseOrderHeaders",
      "outputs": [
        {
          "internalType": "uint32",
          "name": "DocNumber",
          "type": "uint32"
        },
        {
          "internalType": "uint256",
          "name": "TransactionDate",
          "type": "uint256"
        },
        {
          "internalType": "uint256",
          "name": "SupplierId",
          "type": "uint256"
        }
      ],
      "stateMutability": "view",
      "type": "function"
    },
    {
      "inputs": [
        {
          "internalType": "uint256",
          "name": "",
          "type": "uint256"
        }
      ],
      "name": "purchaseOrderLineToOwner",
      "outputs": [
        {
          "internalType": "address",
          "name": "",
          "type": "address"
        }
      ],
      "stateMutability": "view",
      "type": "function"
    },
    {
      "inputs": [
        {
          "internalType": "uint256",
          "name": "",
          "type": "uint256"
        }
      ],
      "name": "purchaseOrderLines",
      "outputs": [
        {
          "internalType": "uint32",
          "name": "DocNumber",
          "type": "uint32"
        },
        {
          "internalType": "uint32",
          "name": "LineNo",
          "type": "uint32"
        },
        {
          "internalType": "uint256",
          "name": "ProductId",
          "type": "uint256"
        },
        {
          "internalType": "uint256",
          "name": "Quantity",
          "type": "uint256"
        },
        {
          "internalType": "int256",
          "name": "Amount",
          "type": "int256"
        }
      ],
      "stateMutability": "view",
      "type": "function"
    }
  ],
  "bytecode": "0x608060405234801561001057600080fd5b50611018806100206000396000f3fe608060405234801561001057600080fd5b506004361061007d5760003560e01c806398e3b99a1161005b57806398e3b99a14610116578063bcdafda214610146578063d152616b14610176578063d16accfe146101a85761007d565b80631460e3d31461008257806317463650146100b6578063321a1c7f146100e6575b600080fd5b61009c60048036038101906100979190610bb2565b6101c4565b6040516100ad959493929190610db9565b60405180910390f35b6100d060048036038101906100cb9190610bb2565b61022a565b6040516100dd9190610d45565b60405180910390f35b61010060048036038101906100fb9190610bb2565b61025d565b60405161010d9190610d45565b60405180910390f35b610130600480360381019061012b9190610b89565b610290565b60405161013d9190610d60565b60405180910390f35b610160600480360381019061015b9190610b89565b61042f565b60405161016d9190610d60565b60405180910390f35b610190600480360381019061018b9190610bb2565b6105ce565b60405161019f93929190610d82565b60405180910390f35b6101c260048036038101906101bd9190610c04565b610618565b005b600081815481106101d457600080fd5b90600052602060002090600402016000915090508060000160009054906101000a900463ffffffff16908060000160049054906101000a900463ffffffff16908060010154908060020154908060030154905085565b60016020528060005260406000206000915054906101000a900473ffffffffffffffffffffffffffffffffffffffff1681565b60046020528060005260406000206000915054906101000a900473ffffffffffffffffffffffffffffffffffffffff1681565b60606000600260008473ffffffffffffffffffffffffffffffffffffffff1673ffffffffffffffffffffffffffffffffffffffff1681526020019081526020016000205467ffffffffffffffff811115610313577f4e487b7100000000000000000000000000000000000000000000000000000000600052604160045260246000fd5b6040519080825280602002602001820160405280156103415781602001602082028036833780820191505090505b5090506000805b600080549050811015610424578473ffffffffffffffffffffffffffffffffffffffff166001600083815260200190815260200160002060009054906101000a900473ffffffffffffffffffffffffffffffffffffffff1673ffffffffffffffffffffffffffffffffffffffff16141561041157808383815181106103f6577f4e487b7100000000000000000000000000000000000000000000000000000000600052603260045260246000fd5b602002602001018181525050818061040d90610f25565b9250505b808061041c90610f25565b915050610348565b508192505050919050565b60606000600560008473ffffffffffffffffffffffffffffffffffffffff1673ffffffffffffffffffffffffffffffffffffffff1681526020019081526020016000205467ffffffffffffffff8111156104b2577f4e487b7100000000000000000000000000000000000000000000000000000000600052604160045260246000fd5b6040519080825280602002602001820160405280156104e05781602001602082028036833780820191505090505b5090506000805b6003805490508110156105c3578473ffffffffffffffffffffffffffffffffffffffff166004600083815260200190815260200160002060009054906101000a900473ffffffffffffffffffffffffffffffffffffffff1673ffffffffffffffffffffffffffffffffffffffff1614156105b05780838381518110610595577f4e487b7100000000000000000000000000000000000000000000000000000000600052603260045260246000fd5b60200260200101818152505081806105ac90610f25565b9250505b80806105bb90610f25565b9150506104e7565b508192505050919050565b600381815481106105de57600080fd5b90600052602060002090600302016000915090508060000160009054906101000a900463ffffffff16908060010154908060020154905083565b600360405180606001604052808763ffffffff16815260200186815260200185815250908060018154018082558091505060019003906000526020600020906003020160009091909190915060008201518160000160006101000a81548163ffffffff021916908363ffffffff16021790555060208201518160010155604082015181600201555050600060016003805490506106b59190610e9b565b9050336004600083815260200190815260200160002060006101000a81548173ffffffffffffffffffffffffffffffffffffffff021916908373ffffffffffffffffffffffffffffffffffffffff1602179055506001600560003373ffffffffffffffffffffffffffffffffffffffff1673ffffffffffffffffffffffffffffffffffffffff168152602001908152602001600020546107559190610e45565b600560003373ffffffffffffffffffffffffffffffffffffffff1673ffffffffffffffffffffffffffffffffffffffff1681526020019081526020016000208190555060005b8383905081101561092c576109198484838181106107e2577f4e487b7100000000000000000000000000000000000000000000000000000000600052603260045260246000fd5b905060a0020160000160208101906107fa9190610bdb565b858584818110610833577f4e487b7100000000000000000000000000000000000000000000000000000000600052603260045260246000fd5b905060a00201602001602081019061084b9190610bdb565b868685818110610884577f4e487b7100000000000000000000000000000000000000000000000000000000600052603260045260246000fd5b905060a00201604001358787868181106108c7577f4e487b7100000000000000000000000000000000000000000000000000000000600052603260045260246000fd5b905060a002016060013588888781811061090a577f4e487b7100000000000000000000000000000000000000000000000000000000600052603260045260246000fd5b905060a0020160800135610935565b808061092490610f25565b91505061079b565b50505050505050565b60006040518060a001604052808763ffffffff1681526020018663ffffffff16815260200185815260200184815260200183815250908060018154018082558091505060019003906000526020600020906004020160009091909190915060008201518160000160006101000a81548163ffffffff021916908363ffffffff16021790555060208201518160000160046101000a81548163ffffffff021916908363ffffffff160217905550604082015181600101556060820151816002015560808201518160030155505060006001600080549050610a159190610e9b565b9050336001600083815260200190815260200160002060006101000a81548173ffffffffffffffffffffffffffffffffffffffff021916908373ffffffffffffffffffffffffffffffffffffffff1602179055506001600260003373ffffffffffffffffffffffffffffffffffffffff1673ffffffffffffffffffffffffffffffffffffffff16815260200190815260200160002054610ab59190610e45565b600260003373ffffffffffffffffffffffffffffffffffffffff1673ffffffffffffffffffffffffffffffffffffffff16815260200190815260200160002081905550505050505050565b600081359050610b0f81610f9d565b92915050565b60008083601f840112610b2757600080fd5b8235905067ffffffffffffffff811115610b4057600080fd5b6020830191508360a0820283011115610b5857600080fd5b9250929050565b600081359050610b6e81610fb4565b92915050565b600081359050610b8381610fcb565b92915050565b600060208284031215610b9b57600080fd5b6000610ba984828501610b00565b91505092915050565b600060208284031215610bc457600080fd5b6000610bd284828501610b5f565b91505092915050565b600060208284031215610bed57600080fd5b6000610bfb84828501610b74565b91505092915050565b600080600080600060808688031215610c1c57600080fd5b6000610c2a88828901610b74565b9550506020610c3b88828901610b5f565b9450506040610c4c88828901610b5f565b935050606086013567ffffffffffffffff811115610c6957600080fd5b610c7588828901610b15565b92509250509295509295909350565b6000610c908383610d18565b60208301905092915050565b610ca581610ecf565b82525050565b6000610cb682610e1c565b610cc08185610e34565b9350610ccb83610e0c565b8060005b83811015610cfc578151610ce38882610c84565b9750610cee83610e27565b925050600181019050610ccf565b5085935050505092915050565b610d1281610ee1565b82525050565b610d2181610f0b565b82525050565b610d3081610f0b565b82525050565b610d3f81610f15565b82525050565b6000602082019050610d5a6000830184610c9c565b92915050565b60006020820190508181036000830152610d7a8184610cab565b905092915050565b6000606082019050610d976000830186610d36565b610da46020830185610d27565b610db16040830184610d27565b949350505050565b600060a082019050610dce6000830188610d36565b610ddb6020830187610d36565b610de86040830186610d27565b610df56060830185610d27565b610e026080830184610d09565b9695505050505050565b6000819050602082019050919050565b600081519050919050565b6000602082019050919050565b600082825260208201905092915050565b6000610e5082610f0b565b9150610e5b83610f0b565b9250827fffffffffffffffffffffffffffffffffffffffffffffffffffffffffffffffff03821115610e9057610e8f610f6e565b5b828201905092915050565b6000610ea682610f0b565b9150610eb183610f0b565b925082821015610ec457610ec3610f6e565b5b828203905092915050565b6000610eda82610eeb565b9050919050565b6000819050919050565b600073ffffffffffffffffffffffffffffffffffffffff82169050919050565b6000819050919050565b600063ffffffff82169050919050565b6000610f3082610f0b565b91507fffffffffffffffffffffffffffffffffffffffffffffffffffffffffffffffff821415610f6357610f62610f6e565b5b600182019050919050565b7f4e487b7100000000000000000000000000000000000000000000000000000000600052601160045260246000fd5b610fa681610ecf565b8114610fb157600080fd5b50565b610fbd81610f0b565b8114610fc857600080fd5b50565b610fd481610f15565b8114610fdf57600080fd5b5056fea26469706673582212203636d9b25df100ac51d85c2030e50d036a78f940078f3d14751eae70cfbff0f264736f6c63430008040033",
  "linkReferences": {},
  "deployedLinkReferences": {}
}