{
  "_format": "hh-sol-artifact-1",
  "contractName": "SalesOrderHeaderFactory",
  "sourceName": "contracts/SalesOrderHeaderFactory.sol",
  "abi": [
    {
      "inputs": [
        {
          "internalType": "uint32",
          "name": "_DocNumber",
          "type": "uint32"
        },
        {
          "internalType": "uint256",
          "name": "_TransactionDate",
          "type": "uint256"
        },
        {
          "internalType": "string",
          "name": "_Customer",
          "type": "string"
        },
        {
          "components": [
            {
              "internalType": "uint32",
              "name": "DocNumber",
              "type": "uint32"
            },
            {
              "internalType": "uint32",
              "name": "LineNo",
              "type": "uint32"
            },
            {
              "internalType": "uint256",
              "name": "ProductId",
              "type": "uint256"
            },
            {
              "internalType": "uint256",
              "name": "Quantity",
              "type": "uint256"
            },
            {
              "internalType": "int256",
              "name": "Amount",
              "type": "int256"
            }
          ],
          "internalType": "struct SalesOrderLineFactory.SalesOrderLine[]",
          "name": "newLines",
          "type": "tuple[]"
        }
      ],
      "name": "createSalesOrderHeader",
      "outputs": [],
      "stateMutability": "nonpayable",
      "type": "function"
    },
    {
      "inputs": [
        {
          "internalType": "address",
          "name": "_owner",
          "type": "address"
        }
      ],
      "name": "getSalesOrderHeaderByOwner",
      "outputs": [
        {
          "internalType": "uint256[]",
          "name": "",
          "type": "uint256[]"
        }
      ],
      "stateMutability": "view",
      "type": "function"
    },
    {
      "inputs": [
        {
          "internalType": "address",
          "name": "_owner",
          "type": "address"
        }
      ],
      "name": "getSalesOrderLineByOwner",
      "outputs": [
        {
          "internalType": "uint256[]",
          "name": "",
          "type": "uint256[]"
        }
      ],
      "stateMutability": "view",
      "type": "function"
    },
    {
      "inputs": [
        {
          "internalType": "uint256",
          "name": "",
          "type": "uint256"
        }
      ],
      "name": "salesOrderHeaderToOwner",
      "outputs": [
        {
          "internalType": "address",
          "name": "",
          "type": "address"
        }
      ],
      "stateMutability": "view",
      "type": "function"
    },
    {
      "inputs": [
        {
          "internalType": "uint256",
          "name": "",
          "type": "uint256"
        }
      ],
      "name": "salesOrderHeaders",
      "outputs": [
        {
          "internalType": "uint32",
          "name": "DocNumber",
          "type": "uint32"
        },
        {
          "internalType": "uint256",
          "name": "TransactionDate",
          "type": "uint256"
        },
        {
          "internalType": "string",
          "name": "Customer",
          "type": "string"
        }
      ],
      "stateMutability": "view",
      "type": "function"
    },
    {
      "inputs": [
        {
          "internalType": "uint256",
          "name": "",
          "type": "uint256"
        }
      ],
      "name": "salesOrderLineToOwner",
      "outputs": [
        {
          "internalType": "address",
          "name": "",
          "type": "address"
        }
      ],
      "stateMutability": "view",
      "type": "function"
    },
    {
      "inputs": [
        {
          "internalType": "uint256",
          "name": "",
          "type": "uint256"
        }
      ],
      "name": "salesOrderLines",
      "outputs": [
        {
          "internalType": "uint32",
          "name": "DocNumber",
          "type": "uint32"
        },
        {
          "internalType": "uint32",
          "name": "LineNo",
          "type": "uint32"
        },
        {
          "internalType": "uint256",
          "name": "ProductId",
          "type": "uint256"
        },
        {
          "internalType": "uint256",
          "name": "Quantity",
          "type": "uint256"
        },
        {
          "internalType": "int256",
          "name": "Amount",
          "type": "int256"
        }
      ],
      "stateMutability": "view",
      "type": "function"
    }
  ],
  "bytecode": "0x608060405234801561001057600080fd5b50611301806100206000396000f3fe608060405234801561001057600080fd5b506004361061007d5760003560e01c8063456435601161005b5780634564356014610118578063793bad7c1461014857806385c1d02714610178578063e2c696cf146101945761007d565b806301e8b919146100825780631054da98146100b457806344f2aa21146100e8575b600080fd5b61009c60048036038101906100979190610d7f565b6101c4565b6040516100ab93929190610fa3565b60405180910390f35b6100ce60048036038101906100c99190610d7f565b610296565b6040516100df959493929190610fe1565b60405180910390f35b61010260048036038101906100fd9190610d7f565b6102fc565b60405161010f9190610f66565b60405180910390f35b610132600480360381019061012d9190610d7f565b61032f565b60405161013f9190610f66565b60405180910390f35b610162600480360381019061015d9190610d56565b610362565b60405161016f9190610f81565b60405180910390f35b610192600480360381019061018d9190610dd1565b610501565b005b6101ae60048036038101906101a99190610d56565b610876565b6040516101bb9190610f81565b60405180910390f35b600381815481106101d457600080fd5b90600052602060002090600302016000915090508060000160009054906101000a900463ffffffff16908060010154908060020180546102139061119c565b80601f016020809104026020016040519081016040528092919081815260200182805461023f9061119c565b801561028c5780601f106102615761010080835404028352916020019161028c565b820191906000526020600020905b81548152906001019060200180831161026f57829003601f168201915b5050505050905083565b600081815481106102a657600080fd5b90600052602060002090600402016000915090508060000160009054906101000a900463ffffffff16908060000160049054906101000a900463ffffffff16908060010154908060020154908060030154905085565b60046020528060005260406000206000915054906101000a900473ffffffffffffffffffffffffffffffffffffffff1681565b60016020528060005260406000206000915054906101000a900473ffffffffffffffffffffffffffffffffffffffff1681565b60606000600560008473ffffffffffffffffffffffffffffffffffffffff1673ffffffffffffffffffffffffffffffffffffffff1681526020019081526020016000205467ffffffffffffffff8111156103e5577f4e487b7100000000000000000000000000000000000000000000000000000000600052604160045260246000fd5b6040519080825280602002602001820160405280156104135781602001602082028036833780820191505090505b5090506000805b6003805490508110156104f6578473ffffffffffffffffffffffffffffffffffffffff166004600083815260200190815260200160002060009054906101000a900473ffffffffffffffffffffffffffffffffffffffff1673ffffffffffffffffffffffffffffffffffffffff1614156104e357808383815181106104c8577f4e487b7100000000000000000000000000000000000000000000000000000000600052603260045260246000fd5b60200260200101818152505081806104df906111ce565b9250505b80806104ee906111ce565b91505061041a565b508192505050919050565b600360405180606001604052808863ffffffff16815260200187815260200186868080601f016020809104026020016040519081016040528093929190818152602001838380828437600081840152601f19601f82011690508083019250505050505050815250908060018154018082558091505060019003906000526020600020906003020160009091909190915060008201518160000160006101000a81548163ffffffff021916908363ffffffff1602179055506020820151816001015560408201518160020190805190602001906105de929190610be0565b505050600060016003805490506105f591906110df565b9050336004600083815260200190815260200160002060006101000a81548173ffffffffffffffffffffffffffffffffffffffff021916908373ffffffffffffffffffffffffffffffffffffffff1602179055506001600560003373ffffffffffffffffffffffffffffffffffffffff1673ffffffffffffffffffffffffffffffffffffffff168152602001908152602001600020546106959190611089565b600560003373ffffffffffffffffffffffffffffffffffffffff1673ffffffffffffffffffffffffffffffffffffffff1681526020019081526020016000208190555060005b8383905081101561086c57610859848483818110610722577f4e487b7100000000000000000000000000000000000000000000000000000000600052603260045260246000fd5b905060a00201600001602081019061073a9190610da8565b858584818110610773577f4e487b7100000000000000000000000000000000000000000000000000000000600052603260045260246000fd5b905060a00201602001602081019061078b9190610da8565b8686858181106107c4577f4e487b7100000000000000000000000000000000000000000000000000000000600052603260045260246000fd5b905060a0020160400135878786818110610807577f4e487b7100000000000000000000000000000000000000000000000000000000600052603260045260246000fd5b905060a002016060013588888781811061084a577f4e487b7100000000000000000000000000000000000000000000000000000000600052603260045260246000fd5b905060a0020160800135610a15565b8080610864906111ce565b9150506106db565b5050505050505050565b60606000600260008473ffffffffffffffffffffffffffffffffffffffff1673ffffffffffffffffffffffffffffffffffffffff1681526020019081526020016000205467ffffffffffffffff8111156108f9577f4e487b7100000000000000000000000000000000000000000000000000000000600052604160045260246000fd5b6040519080825280602002602001820160405280156109275781602001602082028036833780820191505090505b5090506000805b600080549050811015610a0a578473ffffffffffffffffffffffffffffffffffffffff166001600083815260200190815260200160002060009054906101000a900473ffffffffffffffffffffffffffffffffffffffff1673ffffffffffffffffffffffffffffffffffffffff1614156109f757808383815181106109dc577f4e487b7100000000000000000000000000000000000000000000000000000000600052603260045260246000fd5b60200260200101818152505081806109f3906111ce565b9250505b8080610a02906111ce565b91505061092e565b508192505050919050565b60006040518060a001604052808763ffffffff1681526020018663ffffffff16815260200185815260200184815260200183815250908060018154018082558091505060019003906000526020600020906004020160009091909190915060008201518160000160006101000a81548163ffffffff021916908363ffffffff16021790555060208201518160000160046101000a81548163ffffffff021916908363ffffffff160217905550604082015181600101556060820151816002015560808201518160030155505060006001600080549050610af591906110df565b9050336001600083815260200190815260200160002060006101000a81548173ffffffffffffffffffffffffffffffffffffffff021916908373ffffffffffffffffffffffffffffffffffffffff1602179055506001600260003373ffffffffffffffffffffffffffffffffffffffff1673ffffffffffffffffffffffffffffffffffffffff16815260200190815260200160002054610b959190611089565b600260003373ffffffffffffffffffffffffffffffffffffffff1673ffffffffffffffffffffffffffffffffffffffff16815260200190815260200160002081905550505050505050565b828054610bec9061119c565b90600052602060002090601f016020900481019282610c0e5760008555610c55565b82601f10610c2757805160ff1916838001178555610c55565b82800160010185558215610c55579182015b82811115610c54578251825591602001919060010190610c39565b5b509050610c629190610c66565b5090565b5b80821115610c7f576000816000905550600101610c67565b5090565b600081359050610c9281611286565b92915050565b60008083601f840112610caa57600080fd5b8235905067ffffffffffffffff811115610cc357600080fd5b6020830191508360a0820283011115610cdb57600080fd5b9250929050565b60008083601f840112610cf457600080fd5b8235905067ffffffffffffffff811115610d0d57600080fd5b602083019150836001820283011115610d2557600080fd5b9250929050565b600081359050610d3b8161129d565b92915050565b600081359050610d50816112b4565b92915050565b600060208284031215610d6857600080fd5b6000610d7684828501610c83565b91505092915050565b600060208284031215610d9157600080fd5b6000610d9f84828501610d2c565b91505092915050565b600060208284031215610dba57600080fd5b6000610dc884828501610d41565b91505092915050565b60008060008060008060808789031215610dea57600080fd5b6000610df889828a01610d41565b9650506020610e0989828a01610d2c565b955050604087013567ffffffffffffffff811115610e2657600080fd5b610e3289828a01610ce2565b9450945050606087013567ffffffffffffffff811115610e5157600080fd5b610e5d89828a01610c98565b92509250509295509295509295565b6000610e788383610f39565b60208301905092915050565b610e8d81611113565b82525050565b6000610e9e82611044565b610ea88185611067565b9350610eb383611034565b8060005b83811015610ee4578151610ecb8882610e6c565b9750610ed68361105a565b925050600181019050610eb7565b5085935050505092915050565b610efa81611125565b82525050565b6000610f0b8261104f565b610f158185611078565b9350610f25818560208601611169565b610f2e81611275565b840191505092915050565b610f428161114f565b82525050565b610f518161114f565b82525050565b610f6081611159565b82525050565b6000602082019050610f7b6000830184610e84565b92915050565b60006020820190508181036000830152610f9b8184610e93565b905092915050565b6000606082019050610fb86000830186610f57565b610fc56020830185610f48565b8181036040830152610fd78184610f00565b9050949350505050565b600060a082019050610ff66000830188610f57565b6110036020830187610f57565b6110106040830186610f48565b61101d6060830185610f48565b61102a6080830184610ef1565b9695505050505050565b6000819050602082019050919050565b600081519050919050565b600081519050919050565b6000602082019050919050565b600082825260208201905092915050565b600082825260208201905092915050565b60006110948261114f565b915061109f8361114f565b9250827fffffffffffffffffffffffffffffffffffffffffffffffffffffffffffffffff038211156110d4576110d3611217565b5b828201905092915050565b60006110ea8261114f565b91506110f58361114f565b92508282101561110857611107611217565b5b828203905092915050565b600061111e8261112f565b9050919050565b6000819050919050565b600073ffffffffffffffffffffffffffffffffffffffff82169050919050565b6000819050919050565b600063ffffffff82169050919050565b60005b8381101561118757808201518184015260208101905061116c565b83811115611196576000848401525b50505050565b600060028204905060018216806111b457607f821691505b602082108114156111c8576111c7611246565b5b50919050565b60006111d98261114f565b91507fffffffffffffffffffffffffffffffffffffffffffffffffffffffffffffffff82141561120c5761120b611217565b5b600182019050919050565b7f4e487b7100000000000000000000000000000000000000000000000000000000600052601160045260246000fd5b7f4e487b7100000000000000000000000000000000000000000000000000000000600052602260045260246000fd5b6000601f19601f8301169050919050565b61128f81611113565b811461129a57600080fd5b50565b6112a68161114f565b81146112b157600080fd5b50565b6112bd81611159565b81146112c857600080fd5b5056fea26469706673582212207e830ce75404de9c77c097f70cb35b8302fc2b794706dc2e521ca5bfd3dbf77364736f6c63430008040033",
  "linkReferences": {},
  "deployedLinkReferences": {}
}