{
  "_format": "hh-sol-artifact-1",
  "contractName": "SupplierFactory",
  "sourceName": "contracts/SupplierFactory.sol",
  "abi": [
    {
      "anonymous": false,
      "inputs": [
        {
          "indexed": false,
          "internalType": "uint256",
          "name": "id",
          "type": "uint256"
        },
        {
          "indexed": false,
          "internalType": "uint256",
          "name": "SupplierId",
          "type": "uint256"
        },
        {
          "indexed": false,
          "internalType": "string",
          "name": "SupplierName",
          "type": "string"
        }
      ],
      "name": "NewSupplier",
      "type": "event"
    },
    {
      "inputs": [
        {
          "internalType": "uint256",
          "name": "_SupplierId",
          "type": "uint256"
        },
        {
          "internalType": "string",
          "name": "_SupplierName",
          "type": "string"
        },
        {
          "internalType": "string",
          "name": "_SupplierPhone",
          "type": "string"
        }
      ],
      "name": "createSupplier",
      "outputs": [],
      "stateMutability": "nonpayable",
      "type": "function"
    },
    {
      "inputs": [
        {
          "internalType": "address",
          "name": "_owner",
          "type": "address"
        }
      ],
      "name": "getSupplierByOwner",
      "outputs": [
        {
          "internalType": "uint256[]",
          "name": "",
          "type": "uint256[]"
        }
      ],
      "stateMutability": "view",
      "type": "function"
    },
    {
      "inputs": [],
      "name": "getSupplierByOwnerCount",
      "outputs": [
        {
          "internalType": "uint256",
          "name": "",
          "type": "uint256"
        }
      ],
      "stateMutability": "view",
      "type": "function"
    },
    {
      "inputs": [
        {
          "internalType": "uint256",
          "name": "",
          "type": "uint256"
        }
      ],
      "name": "supplierToOwner",
      "outputs": [
        {
          "internalType": "address",
          "name": "",
          "type": "address"
        }
      ],
      "stateMutability": "view",
      "type": "function"
    },
    {
      "inputs": [
        {
          "internalType": "uint256",
          "name": "",
          "type": "uint256"
        }
      ],
      "name": "suppliers",
      "outputs": [
        {
          "internalType": "uint256",
          "name": "SupplierId",
          "type": "uint256"
        },
        {
          "internalType": "string",
          "name": "SupplierName",
          "type": "string"
        },
        {
          "internalType": "string",
          "name": "SupplierPhone",
          "type": "string"
        }
      ],
      "stateMutability": "view",
      "type": "function"
    }
  ],
  "bytecode": "0x608060405234801561001057600080fd5b50610d5e806100206000396000f3fe608060405234801561001057600080fd5b50600436106100575760003560e01c8063611b2c341461005c5780636a0492ec1461008c578063a2a3b666146100bc578063b512c933146100d8578063cea23121146100f6575b600080fd5b610076600480360381019061007191906107f2565b610128565b60405161008391906109f1565b60405180910390f35b6100a660048036038101906100a1919061081b565b6102c7565b6040516100b391906109d6565b60405180910390f35b6100d660048036038101906100d19190610844565b6102fa565b005b6100e061054a565b6040516100ed9190610a13565b60405180910390f35b610110600480360381019061010b919061081b565b610591565b60405161011f93929190610a2e565b60405180910390f35b60606000600260008473ffffffffffffffffffffffffffffffffffffffff1673ffffffffffffffffffffffffffffffffffffffff1681526020019081526020016000205467ffffffffffffffff8111156101ab577f4e487b7100000000000000000000000000000000000000000000000000000000600052604160045260246000fd5b6040519080825280602002602001820160405280156101d95781602001602082028036833780820191505090505b5090506000805b6000805490508110156102bc578473ffffffffffffffffffffffffffffffffffffffff166001600083815260200190815260200160002060009054906101000a900473ffffffffffffffffffffffffffffffffffffffff1673ffffffffffffffffffffffffffffffffffffffff1614156102a9578083838151811061028e577f4e487b7100000000000000000000000000000000000000000000000000000000600052603260045260246000fd5b60200260200101818152505081806102a590610c42565b9250505b80806102b490610c42565b9150506101e0565b508192505050919050565b60016020528060005260406000206000915054906101000a900473ffffffffffffffffffffffffffffffffffffffff1681565b6000604051806060016040528087815260200186868080601f016020809104026020016040519081016040528093929190818152602001838380828437600081840152601f19601f82011690508083019250505050505050815260200184848080601f016020809104026020016040519081016040528093929190818152602001838380828437600081840152601f19601f8201169050808301925050505050505081525090806001815401808255809150506001900390600052602060002090600302016000909190919091506000820151816000015560208201518160010190805190602001906103ee9291906106db565b50604082015181600201908051906020019061040b9291906106db565b505050600060016000805490506104229190610b5e565b9050336001600083815260200190815260200160002060006101000a81548173ffffffffffffffffffffffffffffffffffffffff021916908373ffffffffffffffffffffffffffffffffffffffff1602179055506001600260003373ffffffffffffffffffffffffffffffffffffffff1673ffffffffffffffffffffffffffffffffffffffff168152602001908152602001600020546104c29190610b08565b600260003373ffffffffffffffffffffffffffffffffffffffff1673ffffffffffffffffffffffffffffffffffffffff168152602001908152602001600020819055507fe06308a5a503c225526bcab1a50dfe9e948308a7321174511d7c7d202203e0518187878760405161053a9493929190610a73565b60405180910390a1505050505050565b6000600260003373ffffffffffffffffffffffffffffffffffffffff1673ffffffffffffffffffffffffffffffffffffffff16815260200190815260200160002054905090565b600081815481106105a157600080fd5b90600052602060002090600302016000915090508060000154908060010180546105ca90610c10565b80601f01602080910402602001604051908101604052809291908181526020018280546105f690610c10565b80156106435780601f1061061857610100808354040283529160200191610643565b820191906000526020600020905b81548152906001019060200180831161062657829003601f168201915b50505050509080600201805461065890610c10565b80601f016020809104026020016040519081016040528092919081815260200182805461068490610c10565b80156106d15780601f106106a6576101008083540402835291602001916106d1565b820191906000526020600020905b8154815290600101906020018083116106b457829003601f168201915b5050505050905083565b8280546106e790610c10565b90600052602060002090601f0160209004810192826107095760008555610750565b82601f1061072257805160ff1916838001178555610750565b82800160010185558215610750579182015b8281111561074f578251825591602001919060010190610734565b5b50905061075d9190610761565b5090565b5b8082111561077a576000816000905550600101610762565b5090565b60008135905061078d81610cfa565b92915050565b60008083601f8401126107a557600080fd5b8235905067ffffffffffffffff8111156107be57600080fd5b6020830191508360018202830111156107d657600080fd5b9250929050565b6000813590506107ec81610d11565b92915050565b60006020828403121561080457600080fd5b60006108128482850161077e565b91505092915050565b60006020828403121561082d57600080fd5b600061083b848285016107dd565b91505092915050565b60008060008060006060868803121561085c57600080fd5b600061086a888289016107dd565b955050602086013567ffffffffffffffff81111561088757600080fd5b61089388828901610793565b9450945050604086013567ffffffffffffffff8111156108b257600080fd5b6108be88828901610793565b92509250509295509295909350565b60006108d983836109b8565b60208301905092915050565b6108ee81610b92565b82525050565b60006108ff82610ac3565b6109098185610ae6565b935061091483610ab3565b8060005b8381101561094557815161092c88826108cd565b975061093783610ad9565b925050600181019050610918565b5085935050505092915050565b600061095e8385610af7565b935061096b838584610bce565b61097483610ce9565b840190509392505050565b600061098a82610ace565b6109948185610af7565b93506109a4818560208601610bdd565b6109ad81610ce9565b840191505092915050565b6109c181610bc4565b82525050565b6109d081610bc4565b82525050565b60006020820190506109eb60008301846108e5565b92915050565b60006020820190508181036000830152610a0b81846108f4565b905092915050565b6000602082019050610a2860008301846109c7565b92915050565b6000606082019050610a4360008301866109c7565b8181036020830152610a55818561097f565b90508181036040830152610a69818461097f565b9050949350505050565b6000606082019050610a8860008301876109c7565b610a9560208301866109c7565b8181036040830152610aa8818486610952565b905095945050505050565b6000819050602082019050919050565b600081519050919050565b600081519050919050565b6000602082019050919050565b600082825260208201905092915050565b600082825260208201905092915050565b6000610b1382610bc4565b9150610b1e83610bc4565b9250827fffffffffffffffffffffffffffffffffffffffffffffffffffffffffffffffff03821115610b5357610b52610c8b565b5b828201905092915050565b6000610b6982610bc4565b9150610b7483610bc4565b925082821015610b8757610b86610c8b565b5b828203905092915050565b6000610b9d82610ba4565b9050919050565b600073ffffffffffffffffffffffffffffffffffffffff82169050919050565b6000819050919050565b82818337600083830152505050565b60005b83811015610bfb578082015181840152602081019050610be0565b83811115610c0a576000848401525b50505050565b60006002820490506001821680610c2857607f821691505b60208210811415610c3c57610c3b610cba565b5b50919050565b6000610c4d82610bc4565b91507fffffffffffffffffffffffffffffffffffffffffffffffffffffffffffffffff821415610c8057610c7f610c8b565b5b600182019050919050565b7f4e487b7100000000000000000000000000000000000000000000000000000000600052601160045260246000fd5b7f4e487b7100000000000000000000000000000000000000000000000000000000600052602260045260246000fd5b6000601f19601f8301169050919050565b610d0381610b92565b8114610d0e57600080fd5b50565b610d1a81610bc4565b8114610d2557600080fd5b5056fea2646970667358221220a6228f95ab8fc50cd876a9501be774c0ecbd3f3258277e9dc0b67a5bb8fcbd4c64736f6c63430008040033",
  "linkReferences": {},
  "deployedLinkReferences": {}
}